:400000000040002011000000610200006102000010B500F02DF9C04610B51222164B1A60302000F0B7FC154A154B1A60A022D200144B1A60144B154A1A60E8214901144A52
:400040001160144A1A6082221206134B1A608022D202124B1A604022114B1A600132114B1A601149072000F0CBFB072000F0B2FB00220E4B1A6010BD300010400600008052
:4000800004010B40000301400000014040FF00800403014041FF008008010B4000010B40280101400C010140E90A00000C020B4010B572B600240FE01848620013195900B9
:4000C0000B00411889881A5AC31858880004104300F08EF80134E4B2012CEDD9104A114B1A6099231B04104A1360104A1360104A117806230B43DBB21370E0230D4A1360F5
:400100000D4A136003220D4B1A600D4A0D4B1A60FFF782FF00F082F810BDC04678100000EEEE00000003024020500F4030500F4000700F4000020440180204400003044040
:40014000A40D00000803044010B5064C2378002B07D1054B002B02D0044800E000BF0123237010BD480100200000000074100000084B10B5002B03D00749084800E000BFCC
:4001800007480368002B00D110BD064B002BFBD09847F9E7000000004C01002074100000C00000200000000010B582B001AA0723137001335370013393700021032000F034
:4001C00027F900F0B5F862B600F0BAFD00F0EEFD00F0C6FD002000F0CDFD01AC2070012000F0C8FD6070022000F0C4FDA070F1E710B50A00002100F035FF10BD064B1B68C8
:40020000002803D080221206134301E05B005B08014A13607047C04680033A4010B50323094A1360094A136080221206084B1A60E023084A1360084A13600022074B1A6023
:400240000120FFF7DBFF10BD300030403000314000003A4000033A4040033A40000E3F4010B500F0D3FE03680C2B00D1FEE7FEE770B50F4E0F4D13E029686B68AC68002210
:4002800002E001C901C30432A242FAD1E868002202E0002102C304328242FAD11035013E002EE9D100F0B8FEFFF77EFFFEE7C04601000000EC10000010B50E4A13680121C3
:4002C0008B43136000230AE0032B03D89A000A49505800E009489900094A885001332F2BF2D9FFF7E5FE034A116801230B43136010BDC046000010400000000061020000BA
:400300000000002010B5092000F064FA10BDC04610B500F01DF810BD10B5044A1368802109060B431360FFF7EDFF10BD0000254010B5064B1B78002B04D1FFF7E9FF01223A
:40034000024B1A70FFF7E8FF10BDC0466401002010B50024194B1C60194A1A4B1A601A4B1A4A13601A4A14601A491B4A11601B4A13601B4B1C60092000F036FA03210920C9
:4003800000F050FA1749092000F03AFA164B1C60164B1C605222FF32154B1A60154B1C60154B1C60154B1C60154B1C70154B1C70154B1C80154B00221A7010BD0000254077
:4003C00000080040600025400701008000032540040325401000FE0010032540000225400402254041040000C80E2540880E2540480F2540080F2540C80F2540880F254051
:40040000A0010020A40100209E0100209C01002070B506000D00141E0BD0092000F0E4F9044B1C60044B1E80044B1D80092000F0D1F970BDA8010020AC010020A201002072
:4004400070B5AB4B1B68002B00D09847A94B1C88A94B1D68A94B1E680223FF331D4238D0A74A13685B005B081360A64A137820218B431370117810230B43DBB21370A24B0A
:400480001B68DB060CD4A14B1A789A4B1B889A420CD09C4A117808230B43DBB2137005E0984A117802230B43DBB21370984A1168984B0B4013600023974A1360924A1360AD
:4004C000964A13708E4A1368802109060B4313600AE1F30602D50022914B1A600A23334200D192E08F4B1B685B0758D58E4B1A688A4B1B78002B17D0012B49D18B4B1B883D
:40050000002B0DD001218A4B19608A4B1B681B19D2B21A700134854A1388013B13803AE00222834B1A6036E0834B1B889A422BD201217F4B1960814B1B889A4202D29B1A1C
:400540009BB200E0002379490B80072B03D80121724B197014E0082B09D16D490B68A020000203430B6000216B4B196008E068490B688020800103430B600821664B19604B
:40058000624B1A70140006E00222694B1A6002E0002000F033F90422694B1A6035E05C4B1B689B0431D5B3070DD5664B1B681F211940574A1068574B03401360012014E073
:4005C0000821012011E0594B1988083989B219800829F5D8002008E0564B1B681B19524A1268D2B21A70013401390029F4D1002808D1474A1368802109020B4313600022EB
:40060000454B1A600C224E4B1A60B3074BD5EB0615D50023404A13603B4A13603B4B1B789C4201D1022300E00A232B40354A11780B4320218B4313700022384B1A706B06B4
:400640002FD5304A117820230B43DBB213702F4B1B781C003C4A1268D20612D5364A1288D31A324A1380394B1A68802149020A431A601968364A0A401A601022224B1A603D
:4006800002E00422244B1A600122324B1A603249194B196031490868102303430B60244B1A60154B1D60154B1B685B071CD51F4B1B88002B0CD01F4B1B681B191B78DBB2B8
:4006C000274A13600134194A1388013B138002E0FF22234B1A60234B1B681F221340082BE5D10F3A204B1A60024B1C8070BDC046680100209E010020400F2540000E254002
:4007000000002540A4010020880F25409C01002060002540FF5FFFFFC80F2540A0010020880E2540CC0F2540400325406C0100206C002540A8010020AC010020A20100201E
:40074000C00F2540080325406400254004022540FFFFFEFF800E2540FF0F0000480F25404002254008022540800F254000230AE00D4A12683F210A400C49C95C8A4201D13F
:40078000033303E001332D2BF2D9032308490868084A02400A60084A944663441B78DBB2064A13607047C0462CFF0B408410000000002240FFFFFFBFCDF1FF0F28FF0B400B
:4007C000034B18688023DB05184000D001207047000022401F2318401E3B8340014A13607047C04600E100E01F2318401E3B8340014A13607047C04680E100E001BE70476C
:4008000070B504000D001F2802D90020FFF7F6FF1034A40080239B059C4664442068256070BDC04670B504000E00032902D90020FFF7E4FF1F2C02D90020FFF7DFFF0325E7
:400840002540ED00063500F0C4FAA408A400074B9C46644421680323AB4099430B003100A9401943216000F0B8FA70BD00E400E010B5040006E0084B586800F0A1FA074B67
:400880009C46644480231B029C42F4D8024B9868604300F095FA10BDC40000200080FFFF70B582B000F0CAF800285DD000F091FA050000230AE02D4A12683F210A402C49AB
:4008C000C95C8A4201D1033303E001332D2BF2D903230021274A1160274A1268D20606D1254802681F318A4313390A430260234C2168234A1140234A5A438023DB019C46F2
:400900006244D20B013A5205520D0B001343A0225203134323601C4B1B680193302000F05FFA1A4A13688021C9050B4313602668174B1E40002407E00120FFF799FF103480
:40094000A30533430D4A1360EE2CF5D90120FFF78FFFFF239B051E43084B1E60019A0A4B1A60280000F039FA02B070BD2CFF0B408410000028FF0B4034FF0B400800224016
:4009800000F800C040420F003000104000002240FFFF3FC030B587B0040000F01AFA0500FFF70EFF002803D0FFF7E0FE012100E00021104B1B6800930F4B1B680193033CD0
:4009C0000E4B1B5D02930E4B1B68039304AA0D4B04936B4605930C4B1A600C480C4A10601B68012901D1FFF75BFF280000F0F5F907B030BD08010B4000010B4084100000A1
:400A000030001040B6EA000008001040170000800400104010B5034B1B7B584300F0D0F910BDC046C4000020034B1868C0231B02184000D00120704700010B40034B1B68B4
:400A4000002B01DA012000E0002070470000224010B500F0BEF9044A1368C02109020B43136000F0BAF910BD00010B4010B500F0B0F908490A68084B1A408024E4012243DC
:400A80000A600A6813408022120213430B6000F0A4F910BD00010B40FF3FFFFF70B5050000F097F90400FFF7BFFF002803D0FFF7DDFF012100E0002108482840084A1568D5
:400AC000084B2B40184310601368012901D1FFF7BFFF200000F081F970BDC0460404040010020B40FBFBFBFF10B5244B1B685B0715D5234B5B685B070ED5224B596A04205F
:400B000001401F4C62688A4362605A6A82435A629B69002B00D098470420FFF7BFFF174B1B685B0518D5164B5B685B0510D5154B596A8022D2001140114842688A434260C0
:400B4000596A114A0A405A62DB69002B00D098478020C000FFF7A2FF084B1B685B030CD5074B5B685B0304D5064B1B6A002B00D098478020C002FFF791FF10BD10020B4019
:400B8000D800002070010020FFFBFFFF10B503211020FFF747FE42491020FFF731FE0722404B1A60404B1B68002B01DA3F4900E03F49404A13680B4313603F4A3F4B1A60FB
:400BC0003F4A404B1A6000233F4A13603F4A40490A6040490A60404A116880204002014311603E490A6802430A603D4A13603D4A136001223C4B1A603C4A11683C4B0B40AE
:400C0000802189050B431360002445E03949A2005058DC239B0103400919097B0B4336498C4662441360C30707D52D490A680123A3401B041B0C13430B60A3002D4A9B58CA
:400C40009B0707D527490A680123A3401B041B0C13430B60A300274A9B589A0502D58020400001E080204001DB0504D463000021224A995203E063000021204A9952204B2D
:400C80005843204B9C4660441F4900F0D3F800B2A2001E4BD0500134022CB7D910BDC046A10D000020003A4080033A40702010107020001000003A408C00008004003A4049
:400CC0000000FF0718003A401C003A400400040010003A4014003A4000033A4040033A4028023A4038023A4018023A4030003A40FEFFFFDFB410000080003A40B00100206C
:400D000010270000E40C0000C8190000B801002010B5094B1B68002B0CDB084B1B68002BFBDB054A1368802109060B4313600A20FFF770FE10BDC04600003A4008023A40B3
:400D400010B5064B1B78002B04D1FFF71FFF0122024B1A70FFF7DCFF10BDC04698010020034A1368802149020B4313607047C04604003A4010B50400022802D90020FFF7CB
:400D80003DFD022C07D8A400044B9C46644420680004000C00E0002000B210BD80013A40014B1A681A60704710023A4080225202014B1A607047C04600E100E00000000098
:400DC0000230800803D00138FDD1C046C046C0467047EFF3108072B6704780F31088704770B50400FFF7F5FF0500102C05D8104A136803218B43136016E0202C07D80C49A2
:400E00000B6803229343023A13430B600CE0302C07D807490B6803229343013A13430B6002E00020FFF7EAFC2800FFF7D6FF70BD3000104003460B437FD4002243088B42C4
:400E400074D303098B425FD3030A8B4244D3030B8B4228D3030C8B420DD3FF22090212BA030C8B4202D31212090265D0030B8B4219D300E0090AC30B8B4201D3CB03C01ABF
:400E80005241830B8B4201D38B03C01A5241430B8B4201D34B03C01A5241030B8B4201D30B03C01A5241C30A8B4201D3CB02C01A5241830A8B4201D38B02C01A5241430A84
:400EC0008B4201D34B02C01A5241030A8B4201D30B02C01A5241CDD2C3098B4201D3CB01C01A524183098B4201D38B01C01A524143098B4201D34B01C01A524103098B4285
:400F000001D30B01C01A5241C3088B4201D3CB00C01A524183088B4201D38B00C01A524143088B4201D34B00C01A5241411A00D201465241104670475DE0CA0F00D0494273
:400F4000031000D34042534000229C4603098B422DD3030A8B4212D3FC22890112BA030A8B420CD3890192118B4208D3890192118B4204D389013AD0921100E08909C30992
:400F80008B4201D3CB01C01A524183098B4201D38B01C01A524143098B4201D34B01C01A524103098B4201D30B01C01A5241C3088B4201D3CB00C01A524183088B4201D395
:400FC0008B00C01A5241D9D243088B4201D34B00C01A5241411A00D20146634652415B10104601D34042002B00D54942704763465B1000D3404201B5002000F005F802BDB6
:401000000029F8D016E770477047C046014B18687047C046400100200E4B70B500251E000D4CE41AA410A54204D0AB00F35898470135F8E700F048F8084B00251E00084CD9
:40104000E41AA410A54204D0AB00F35898470135F8E770BDD4100000D4100000D4100000DC10000003008218934202D019700133FAE770470000000000300F4000040040F8
:401080000F400004030405060708090A0B0C0E0F101112131415161718191B1C1D1E1F2021222325262728292A2B2E2F3031323334350000000000000000000000000000ED
:4010C0000706054300000000F8B5C046F8BC08BC9E46704771010000B9020000F8B5C046F8BC08BC9E4670474901000000110000C00000208800000080000000000000009F
:4011000000000000010000000000C05D80BB000030000000006CDC02F0000000040404000000000000000000000000000000000000000000000000000000000000000000E0
:40114000C31000000000000000000000000000000000000000000000000000000000000000000000000000000000000000000000000000000000000000000000000000009C
:40118000E00000200000000000000000000000000000000000000000000000000000000000000000000000000000000000000000000000000000000000000000000000002F
:4011C00000000000000000000000000000000000000000000000000000000000000000000000000000000000000000000000000000000000000000000000000000000000EF
:4012000000000000000000000000000000000000000000000000000000000000000000000000000000000000000000000000000000000000000000000000000000000000AE
:40124000000000000000000000000000000000000000000000000000000000000000000000000000000000000000000000000000000000000000000000000000000000006E
:40128000000000000000000000000000000000000000000000000000000000000000000000000000000000000000000000000000000000000000000000000000000000002E
:020000040001F9
:0200000490303A
:020000001AAE36
:0200000490402A
:4000000000000000000000000000000000000000000000000000000000000000000000000000000000000000000000000000000000000000000000000000000000000000C0
:400040000000000000000000000000000000000000000000000000000000000000000000000000000000000000000000000000000000000000000000000000000000000080
:0200000490501A
:0C0000000002112D11A1000111322C4F43
:0200000490600A
:0100000001FE
:00000001FF